{
  "address": "0xa5aD1AB14e7967e37a47F7d9f0250EC1CA373bCc",
  "abi": [
    {
      "inputs": [
        {
          "internalType": "address",
          "name": "exampleExternalContractAddress",
          "type": "address"
        }
      ],
      "stateMutability": "nonpayable",
      "type": "constructor"
    },
    {
      "inputs": [],
      "name": "AlreadyCompleted",
      "type": "error"
    },
    {
      "inputs": [],
      "name": "DeadlineNotReached",
      "type": "error"
    },
    {
      "inputs": [],
      "name": "InvalidAmount",
      "type": "error"
    },
    {
      "inputs": [],
      "name": "NotOpenForWithdraw",
      "type": "error"
    },
    {
      "inputs": [],
      "name": "UnAuthorized",
      "type": "error"
    },
    {
      "anonymous": false,
      "inputs": [
        {
          "indexed": false,
          "internalType": "address",
          "name": "",
          "type": "address"
        },
        {
          "indexed": false,
          "internalType": "uint256",
          "name": "",
          "type": "uint256"
        }
      ],
      "name": "Stake",
      "type": "event"
    },
    {
      "inputs": [
        {
          "internalType": "address",
          "name": "",
          "type": "address"
        }
      ],
      "name": "balances",
      "outputs": [
        {
          "internalType": "uint256",
          "name": "",
          "type": "uint256"
        }
      ],
      "stateMutability": "view",
      "type": "function"
    },
    {
      "inputs": [],
      "name": "deadline",
      "outputs": [
        {
          "internalType": "uint256",
          "name": "",
          "type": "uint256"
        }
      ],
      "stateMutability": "view",
      "type": "function"
    },
    {
      "inputs": [],
      "name": "exampleExternalContract",
      "outputs": [
        {
          "internalType": "contract ExampleExternalContract",
          "name": "",
          "type": "address"
        }
      ],
      "stateMutability": "view",
      "type": "function"
    },
    {
      "inputs": [],
      "name": "execute",
      "outputs": [],
      "stateMutability": "nonpayable",
      "type": "function"
    },
    {
      "inputs": [],
      "name": "openForWithdraw",
      "outputs": [
        {
          "internalType": "bool",
          "name": "",
          "type": "bool"
        }
      ],
      "stateMutability": "view",
      "type": "function"
    },
    {
      "inputs": [],
      "name": "stake",
      "outputs": [
        {
          "internalType": "bool",
          "name": "",
          "type": "bool"
        }
      ],
      "stateMutability": "payable",
      "type": "function"
    },
    {
      "inputs": [],
      "name": "threshold",
      "outputs": [
        {
          "internalType": "uint256",
          "name": "",
          "type": "uint256"
        }
      ],
      "stateMutability": "view",
      "type": "function"
    },
    {
      "inputs": [],
      "name": "timeLeft",
      "outputs": [
        {
          "internalType": "uint256",
          "name": "",
          "type": "uint256"
        }
      ],
      "stateMutability": "view",
      "type": "function"
    },
    {
      "inputs": [],
      "name": "withdraw",
      "outputs": [],
      "stateMutability": "nonpayable",
      "type": "function"
    },
    {
      "stateMutability": "payable",
      "type": "receive"
    }
  ],
  "transactionHash": "0x61d9fed94d43e0ef297bf7b9d8ed9d616d13bfcfdbafbe607ea2ce2cc116b444",
  "args": [
    "0x02f1DBc2b393c198e33FF0C79813046063B59E85"
  ],
  "numDeployments": 2,
  "solcInputHash": "568c771069ee6efa00ca6770913c5138",
  "bytecode": "0x6080604052610011426203f480610064565b60015534801561002057600080fd5b506040516107a33803806107a383398101604081905261003f9161008b565b600080546001600160a01b0319166001600160a01b03929092169190911790556100bb565b8082018082111561008557634e487b7160e01b600052601160045260246000fd5b92915050565b60006020828403121561009d57600080fd5b81516001600160a01b03811681146100b457600080fd5b9392505050565b6106d9806100ca6000396000f3fe60806040526004361061008a5760003560e01c80633ccfd60b116100595780633ccfd60b1461012157806342cde4e81461013657806361461954146101525780639876a643146101675780639f75f2271461018157600080fd5b80631300a6d11461009e57806327e235e3146100c657806329dcb0cf146100f35780633a4b66f11461010957600080fd5b36610099576100976101b9565b005b600080fd5b3480156100aa57600080fd5b506100b361025c565b6040519081526020015b60405180910390f35b3480156100d257600080fd5b506100b36100e136600461060f565b60036020526000908152604090205481565b3480156100ff57600080fd5b506100b360015481565b6101116101b9565b60405190151581526020016100bd565b34801561012d57600080fd5b50610097610280565b34801561014257600080fd5b506100b3670de0b6b3a764000081565b34801561015e57600080fd5b506100976103ee565b34801561017357600080fd5b506002546101119060ff1681565b34801561018d57600080fd5b506000546101a1906001600160a01b031681565b6040516001600160a01b0390911681526020016100bd565b6000336101d95760405163be24598360e01b815260040160405180910390fd5b600034116101fa5760405163162908e360e11b815260040160405180910390fd5b3360009081526003602052604081208054349290610219908490610655565b9091555050604080513381523460208201527febedb8b3c678666e7f36970bc8f57abf6d8fa2e828c0da91ea5b75bf68ed101a910160405180910390a150600190565b6000600154421061026d5750600090565b4260015461027b919061066e565b905090565b60008054906101000a90046001600160a01b03166001600160a01b0316639d9a7fe96040518163ffffffff1660e01b8152600401602060405180830381865afa1580156102d1573d6000803e3d6000fd5b505050506040513d601f19601f820116820180604052508101906102f59190610681565b1561033b5760405162461bcd60e51b8152602060048201526011602482015270105b1c9958591e4818dbdb5c1b195d1959607a1b60448201526064015b60405180910390fd5b336103595760405163be24598360e01b815260040160405180910390fd5b60025460ff16151560000361038157604051630a50a14360e01b815260040160405180910390fd5b33600090815260036020526040902054806103af5760405163162908e360e11b815260040160405180910390fd5b336000818152600360205260408082208290555183156108fc0291849190818181858888f193505050501580156103ea573d6000803e3d6000fd5b5050565b60008054906101000a90046001600160a01b03166001600160a01b0316639d9a7fe96040518163ffffffff1660e01b8152600401602060405180830381865afa15801561043f573d6000803e3d6000fd5b505050506040513d601f19601f820116820180604052508101906104639190610681565b156104a45760405162461bcd60e51b8152602060048201526011602482015270105b1c9958591e4818dbdb5c1b195d1959607a1b6044820152606401610332565b336104c25760405163be24598360e01b815260040160405180910390fd5b60008054906101000a90046001600160a01b03166001600160a01b0316639d9a7fe96040518163ffffffff1660e01b8152600401602060405180830381865afa158015610513573d6000803e3d6000fd5b505050506040513d601f19601f820116820180604052508101906105379190610681565b156105555760405163195332a560e01b815260040160405180910390fd5b426001541061057757604051633376277360e11b815260040160405180910390fd5b670de0b6b3a764000047106105ef5760008054906101000a90046001600160a01b03166001600160a01b031663522e1177476040518263ffffffff1660e01b81526004016000604051808303818588803b1580156105d457600080fd5b505af11580156105e8573d6000803e3d6000fd5b5050505050565b670de0b6b3a764000047101561060d576002805460ff191660011790555b565b60006020828403121561062157600080fd5b81356001600160a01b038116811461063857600080fd5b9392505050565b634e487b7160e01b600052601160045260246000fd5b808201808211156106685761066861063f565b92915050565b818103818111156106685761066861063f565b60006020828403121561069357600080fd5b8151801515811461063857600080fdfea2646970667358221220edbffa86ccb9f0433f43fc0271e01613a51fdb89753901a8ddc8b14140e93a5564736f6c63430008140033",
  "devdoc": {
    "kind": "dev",
    "methods": {},
    "version": 1
  },
  "userdoc": {
    "kind": "user",
    "methods": {},
    "version": 1
  },
  "storageLayout": {
    "storage": [
      {
        "astId": 19,
        "contract": "contracts/Staker.sol:Staker",
        "label": "exampleExternalContract",
        "offset": 0,
        "slot": "0",
        "type": "t_contract(ExampleExternalContract)12"
      },
      {
        "astId": 25,
        "contract": "contracts/Staker.sol:Staker",
        "label": "deadline",
        "offset": 0,
        "slot": "1",
        "type": "t_uint256"
      },
      {
        "astId": 30,
        "contract": "contracts/Staker.sol:Staker",
        "label": "openForWithdraw",
        "offset": 0,
        "slot": "2",
        "type": "t_bool"
      },
      {
        "astId": 34,
        "contract": "contracts/Staker.sol:Staker",
        "label": "balances",
        "offset": 0,
        "slot": "3",
        "type": "t_mapping(t_address,t_uint256)"
      }
    ],
    "types": {
      "t_address": {
        "encoding": "inplace",
        "label": "address",
        "numberOfBytes": "20"
      },
      "t_bool": {
        "encoding": "inplace",
        "label": "bool",
        "numberOfBytes": "1"
      },
      "t_contract(ExampleExternalContract)12": {
        "encoding": "inplace",
        "label": "contract ExampleExternalContract",
        "numberOfBytes": "20"
      },
      "t_mapping(t_address,t_uint256)": {
        "encoding": "mapping",
        "key": "t_address",
        "label": "mapping(address => uint256)",
        "numberOfBytes": "32",
        "value": "t_uint256"
      },
      "t_uint256": {
        "encoding": "inplace",
        "label": "uint256",
        "numberOfBytes": "32"
      }
    }
  }
}